{
  "_format": "hh-sol-artifact-1",
  "contractName": "Ballot",
  "sourceName": "contracts/TokenizedBallot.sol",
  "abi": [
    {
      "inputs": [
        {
          "internalType": "bytes32[]",
          "name": "proposalNames",
          "type": "bytes32[]"
        },
        {
          "internalType": "address",
          "name": "_tokenContract",
          "type": "address"
        },
        {
          "internalType": "uint256",
          "name": "_targetBlockNumber",
          "type": "uint256"
        }
      ],
      "stateMutability": "nonpayable",
      "type": "constructor"
    },
    {
      "inputs": [
        {
          "internalType": "address",
          "name": "to",
          "type": "address"
        }
      ],
      "name": "delegate",
      "outputs": [],
      "stateMutability": "nonpayable",
      "type": "function"
    },
    {
      "inputs": [],
      "name": "getProposalNames",
      "outputs": [
        {
          "internalType": "bytes32[]",
          "name": "proposalNames",
          "type": "bytes32[]"
        }
      ],
      "stateMutability": "view",
      "type": "function"
    },
    {
      "inputs": [
        {
          "internalType": "uint256",
          "name": "",
          "type": "uint256"
        }
      ],
      "name": "proposals",
      "outputs": [
        {
          "internalType": "bytes32",
          "name": "name",
          "type": "bytes32"
        },
        {
          "internalType": "uint256",
          "name": "voteCount",
          "type": "uint256"
        }
      ],
      "stateMutability": "view",
      "type": "function"
    },
    {
      "inputs": [],
      "name": "targetBlockNumber",
      "outputs": [
        {
          "internalType": "uint256",
          "name": "",
          "type": "uint256"
        }
      ],
      "stateMutability": "view",
      "type": "function"
    },
    {
      "inputs": [],
      "name": "tokenContract",
      "outputs": [
        {
          "internalType": "contract IMyToken",
          "name": "",
          "type": "address"
        }
      ],
      "stateMutability": "view",
      "type": "function"
    },
    {
      "inputs": [
        {
          "internalType": "uint256",
          "name": "proposal",
          "type": "uint256"
        },
        {
          "internalType": "uint256",
          "name": "amount",
          "type": "uint256"
        }
      ],
      "name": "vote",
      "outputs": [],
      "stateMutability": "nonpayable",
      "type": "function"
    },
    {
      "inputs": [
        {
          "internalType": "address",
          "name": "account",
          "type": "address"
        }
      ],
      "name": "votingPower",
      "outputs": [
        {
          "internalType": "uint256",
          "name": "",
          "type": "uint256"
        }
      ],
      "stateMutability": "view",
      "type": "function"
    },
    {
      "inputs": [
        {
          "internalType": "address",
          "name": "",
          "type": "address"
        }
      ],
      "name": "votingPowerSpent",
      "outputs": [
        {
          "internalType": "uint256",
          "name": "",
          "type": "uint256"
        }
      ],
      "stateMutability": "view",
      "type": "function"
    },
    {
      "inputs": [],
      "name": "winnerName",
      "outputs": [
        {
          "internalType": "bytes32",
          "name": "winnerName_",
          "type": "bytes32"
        }
      ],
      "stateMutability": "view",
      "type": "function"
    },
    {
      "inputs": [],
      "name": "winningProposal",
      "outputs": [
        {
          "internalType": "uint256",
          "name": "winningProposal_",
          "type": "uint256"
        }
      ],
      "stateMutability": "view",
      "type": "function"
    }
  ],
  "bytecode": "0x60806040523480156200001157600080fd5b506040516200134338038062001343833981810160405281019062000037919062000383565b816000806101000a81548173ffffffffffffffffffffffffffffffffffffffff021916908373ffffffffffffffffffffffffffffffffffffffff1602179055508060028190555060005b8351811015620001155760016040518060400160405280868481518110620000ae57620000ad620003fe565b5b60200260200101518152602001600081525090806001815401808255809150506001900390600052602060002090600202016000909190919091506000820151816000015560208201518160010155505080806200010c906200045c565b91505062000081565b50505050620004a9565b6000604051905090565b600080fd5b600080fd5b600080fd5b6000601f19601f8301169050919050565b7f4e487b7100000000000000000000000000000000000000000000000000000000600052604160045260246000fd5b620001838262000138565b810181811067ffffffffffffffff82111715620001a557620001a462000149565b5b80604052505050565b6000620001ba6200011f565b9050620001c8828262000178565b919050565b600067ffffffffffffffff821115620001eb57620001ea62000149565b5b602082029050602081019050919050565b600080fd5b6000819050919050565b620002168162000201565b81146200022257600080fd5b50565b60008151905062000236816200020b565b92915050565b6000620002536200024d84620001cd565b620001ae565b90508083825260208201905060208402830185811115620002795762000278620001fc565b5b835b81811015620002a6578062000291888262000225565b8452602084019350506020810190506200027b565b5050509392505050565b600082601f830112620002c857620002c762000133565b5b8151620002da8482602086016200023c565b91505092915050565b600073ffffffffffffffffffffffffffffffffffffffff82169050919050565b60006200031082620002e3565b9050919050565b620003228162000303565b81146200032e57600080fd5b50565b600081519050620003428162000317565b92915050565b6000819050919050565b6200035d8162000348565b81146200036957600080fd5b50565b6000815190506200037d8162000352565b92915050565b6000806000606084860312156200039f576200039e62000129565b5b600084015167ffffffffffffffff811115620003c057620003bf6200012e565b5b620003ce86828701620002b0565b9350506020620003e18682870162000331565b9250506040620003f4868287016200036c565b9150509250925092565b7f4e487b7100000000000000000000000000000000000000000000000000000000600052603260045260246000fd5b7f4e487b7100000000000000000000000000000000000000000000000000000000600052601160045260246000fd5b6000620004698262000348565b91507fffffffffffffffffffffffffffffffffffffffffffffffffffffffffffffffff82036200049e576200049d6200042d565b5b600182019050919050565b610e8a80620004b96000396000f3fe608060405234801561001057600080fd5b506004361061009e5760003560e01c80636b5a051b116100665780636b5a051b1461014a578063a720035114610168578063b384abef14610198578063c07473f6146101b4578063e2ba53f0146101e45761009e565b8063013cf08b146100a35780632a8cd29e146100d457806355a373d6146100f25780635c19a95c14610110578063609ff1bd1461012c575b600080fd5b6100bd60048036038101906100b891906108b5565b610202565b6040516100cb92919061090a565b60405180910390f35b6100dc610236565b6040516100e99190610933565b60405180910390f35b6100fa61023c565b60405161010791906109cd565b60405180910390f35b61012a60048036038101906101259190610a26565b610260565b005b61013461034f565b6040516101419190610933565b60405180910390f35b6101526103d7565b60405161015f9190610b11565b60405180910390f35b610182600480360381019061017d9190610a26565b610495565b60405161018f9190610933565b60405180910390f35b6101b260048036038101906101ad9190610b33565b6104ad565b005b6101ce60048036038101906101c99190610a26565b61058e565b6040516101db9190610933565b60405180910390f35b6101ec610697565b6040516101f99190610b73565b60405180910390f35b6001818154811061021257600080fd5b90600052602060002090600202016000915090508060000154908060010154905082565b60025481565b60008054906101000a900473ffffffffffffffffffffffffffffffffffffffff1681565b3373ffffffffffffffffffffffffffffffffffffffff168173ffffffffffffffffffffffffffffffffffffffff16036102ce576040517f08c379a00000000000000000000000000000000000000000000000000000000081526004016102c590610beb565b60405180910390fd5b80600460003373ffffffffffffffffffffffffffffffffffffffff1673ffffffffffffffffffffffffffffffffffffffff16815260200190815260200160002060006101000a81548173ffffffffffffffffffffffffffffffffffffffff021916908373ffffffffffffffffffffffffffffffffffffffff16021790555050565b6000806000905060005b6001805490508110156103d257816001828154811061037b5761037a610c0b565b5b90600052602060002090600202016001015411156103bf57600181815481106103a7576103a6610c0b565b5b90600052602060002090600202016001015491508092505b80806103ca90610c69565b915050610359565b505090565b606060018054905067ffffffffffffffff8111156103f8576103f7610cb1565b5b6040519080825280602002602001820160405280156104265781602001602082028036833780820191505090505b50905060005b600180549050811015610491576001818154811061044d5761044c610c0b565b5b90600052602060002090600202016000015482828151811061047257610471610c0b565b5b602002602001018181525050808061048990610c69565b91505061042c565b5090565b60036020528060005260406000206000915090505481565b6104b63361058e565b8111156104f8576040517f08c379a00000000000000000000000000000000000000000000000000000000081526004016104ef90610d52565b60405180910390fd5b80600360003373ffffffffffffffffffffffffffffffffffffffff1673ffffffffffffffffffffffffffffffffffffffff16815260200190815260200160002060008282546105479190610d72565b92505081905550806001838154811061056357610562610c0b565b5b906000526020600020906002020160010160008282546105839190610d72565b925050819055505050565b60008061059a836106cb565b9050600360008473ffffffffffffffffffffffffffffffffffffffff1673ffffffffffffffffffffffffffffffffffffffff168152602001908152602001600020548160008054906101000a900473ffffffffffffffffffffffffffffffffffffffff1673ffffffffffffffffffffffffffffffffffffffff16633a46b1a8866002546040518363ffffffff1660e01b815260040161063a929190610db5565b602060405180830381865afa158015610657573d6000803e3d6000fd5b505050506040513d601f19601f8201168201806040525081019061067b9190610df3565b6106859190610d72565b61068f9190610e20565b915050919050565b600060016106a361034f565b815481106106b4576106b3610c0b565b5b906000526020600020906002020160000154905090565b600060036000600460008573ffffffffffffffffffffffffffffffffffffffff1673ffffffffffffffffffffffffffffffffffffffff16815260200190815260200160002060009054906101000a900473ffffffffffffffffffffffffffffffffffffffff1673ffffffffffffffffffffffffffffffffffffffff1673ffffffffffffffffffffffffffffffffffffffff1681526020019081526020016000205460008054906101000a900473ffffffffffffffffffffffffffffffffffffffff1673ffffffffffffffffffffffffffffffffffffffff16633a46b1a8600460008673ffffffffffffffffffffffffffffffffffffffff1673ffffffffffffffffffffffffffffffffffffffff16815260200190815260200160002060009054906101000a900473ffffffffffffffffffffffffffffffffffffffff166002546040518363ffffffff1660e01b8152600401610828929190610db5565b602060405180830381865afa158015610845573d6000803e3d6000fd5b505050506040513d601f19601f820116820180604052508101906108699190610df3565b6108739190610e20565b9050919050565b600080fd5b6000819050919050565b6108928161087f565b811461089d57600080fd5b50565b6000813590506108af81610889565b92915050565b6000602082840312156108cb576108ca61087a565b5b60006108d9848285016108a0565b91505092915050565b6000819050919050565b6108f5816108e2565b82525050565b6109048161087f565b82525050565b600060408201905061091f60008301856108ec565b61092c60208301846108fb565b9392505050565b600060208201905061094860008301846108fb565b92915050565b600073ffffffffffffffffffffffffffffffffffffffff82169050919050565b6000819050919050565b600061099361098e6109898461094e565b61096e565b61094e565b9050919050565b60006109a582610978565b9050919050565b60006109b78261099a565b9050919050565b6109c7816109ac565b82525050565b60006020820190506109e260008301846109be565b92915050565b60006109f38261094e565b9050919050565b610a03816109e8565b8114610a0e57600080fd5b50565b600081359050610a20816109fa565b92915050565b600060208284031215610a3c57610a3b61087a565b5b6000610a4a84828501610a11565b91505092915050565b600081519050919050565b600082825260208201905092915050565b6000819050602082019050919050565b610a88816108e2565b82525050565b6000610a9a8383610a7f565b60208301905092915050565b6000602082019050919050565b6000610abe82610a53565b610ac88185610a5e565b9350610ad383610a6f565b8060005b83811015610b04578151610aeb8882610a8e565b9750610af683610aa6565b925050600181019050610ad7565b5085935050505092915050565b60006020820190508181036000830152610b2b8184610ab3565b905092915050565b60008060408385031215610b4a57610b4961087a565b5b6000610b58858286016108a0565b9250506020610b69858286016108a0565b9150509250929050565b6000602082019050610b8860008301846108ec565b92915050565b600082825260208201905092915050565b7f596f752063616e6e6f742064656c656761746520746f20796f757273656c662e600082015250565b6000610bd5602083610b8e565b9150610be082610b9f565b602082019050919050565b60006020820190508181036000830152610c0481610bc8565b9050919050565b7f4e487b7100000000000000000000000000000000000000000000000000000000600052603260045260246000fd5b7f4e487b7100000000000000000000000000000000000000000000000000000000600052601160045260246000fd5b6000610c748261087f565b91507fffffffffffffffffffffffffffffffffffffffffffffffffffffffffffffffff8203610ca657610ca5610c3a565b5b600182019050919050565b7f4e487b7100000000000000000000000000000000000000000000000000000000600052604160045260246000fd5b7f5573657220686173206e6f7420656e6f75676820766f74696e6720706f77657260008201527f20746f20766f7465000000000000000000000000000000000000000000000000602082015250565b6000610d3c602883610b8e565b9150610d4782610ce0565b604082019050919050565b60006020820190508181036000830152610d6b81610d2f565b9050919050565b6000610d7d8261087f565b9150610d888361087f565b9250828201905080821115610da057610d9f610c3a565b5b92915050565b610daf816109e8565b82525050565b6000604082019050610dca6000830185610da6565b610dd760208301846108fb565b9392505050565b600081519050610ded81610889565b92915050565b600060208284031215610e0957610e0861087a565b5b6000610e1784828501610dde565b91505092915050565b6000610e2b8261087f565b9150610e368361087f565b9250828203905081811115610e4e57610e4d610c3a565b5b9291505056fea2646970667358221220b4c8e36003de8a44f46a1a4630de838c72a79f76213d46b58fcf1d729c9a681764736f6c63430008130033",
  "linkReferences": {},
  "deployedLinkReferences": {}
}